:100000000C942A000C9447000C9447000C94470071
:100010000C9447000C9447000C9447000C94470044
:100020000C9447000C9447000C9447000C94470034
:100030000C9447000C9447000C9447000C94470024
:100040000C9447000C9447000C9447000C94470014
:100050000C94470011241FBECFE5D8E0DEBFCDBF12
:1000600013E0A0E6B0E0E8E1F5E202C005900D92F1
:10007000A83DB107D9F713E0A8EDB3E001C01D9288
:10008000A53EB107E1F70E94E6110C948A120C9488
:100090000000A0E2B0E0EFE4F0E00C9453126983BA
:1000A0007A838B839C832D833E834F835887CE0135
:1000B0000196BE01675F7F4F0E946C02CE010596DC
:1000C000BE016F5E7F4F0E946C029985923088F06E
:1000D00089898230C8F0943019F4823051F404C018
:1000E000843029F4923081F484E890E0C6C09230E4
:1000F00049F420E09A858A89981321E02A87CE0165
:100100000996BBC0823049F420E09A858A89981309
:1001100021E02A8BCE014196B0C02D843E844F84CD
:1001200058886D887E888F88988CEE24FF248701FC
:10013000AA24BB24650140E050E060E070E0E0E00C
:10014000F0E0C10181709070892BE9F0E60CF71C9A
:10015000081D191D9A01AB012A0D3B1D4C1D5D1D8B
:1001600080E090E0A0E0B0E0E614F704080519058F
:1001700020F481E090E0A0E0B0E0BA01A901480FCE
:10018000591F6A1F7B1FAA0CBB1CCC1CDD1C97FED1
:1001900008C081E090E0A0E0B0E0A82AB92ACA2A0D
:1001A000DB2A3196E032F10549F0660C771C881C99
:1001B000991C5694479437942794C3CFFA85EA89BB
:1001C0002B893C898B859C85280F391F2E5F3F4FDB
:1001D00017C0CA0181709070892B61F01695079540
:1001E000F794E79480E090E0A0E0B0E8E82AF92AEC
:1001F0000A2B1B2B76956795579547952F5F3F4F99
:1002000077FDE7CF0CC0440F551F661F771F17FD02
:100210004160EE0CFF1C001F111F21503040403088
:1002200090E0590790E0690790E4790760F32B8F1D
:100230003C8FDB01CA018F779070A070B070803462
:100240009105A105B10561F447FD0AC0E114F1046F
:100250000105110529F0405C5F4F6F4F7F4F4078DB
:100260001A8EFE1711F081E08A8F4D8F5E8F6F8F8F
:1002700078A383E0898FCE0149960E949701A096CA
:10028000E2E10C946F12ACE0B0E0E9E4F1E00C9430
:10029000631269837A838B839C83CE010196BE01AE
:1002A0006B5F7F4F0E946C028D81823061F18230E2
:1002B00050F1843021F48E81882351F12EC02F819A
:1002C000388537FD20C06E812F3131051CF0662343
:1002D000F9F023C08EE190E0821B930B29853A85CB
:1002E0004B855C8504C056954795379527958A952B
:1002F000D2F76623B1F050954095309521953F4F48
:100300004F4F5F4F0EC020E030E040E050E009C0AA
:100310002FEF3FEF4FEF5FE704C020E030E040E019
:1003200050E8B901CA012C96E2E00C947F12DF92EA
:10033000EF92FF920F931F93FC01E480F5800681FA
:100340001781D1808081823048F480E090E0A0E184
:10035000B0E0E82AF92A0A2B1B2BA5C0843009F447
:100360009FC0823021F4EE24FF24870105C0E114F0
:10037000F1040105110519F4E0E0F0E096C0628196
:1003800073819FEF623879070CF05BC022E83FEF82
:10039000261B370B2A3131052CF020E030E040E0FD
:1003A00050E02AC0B801A701022E04C076956795D7
:1003B000579547950A94D2F781E090E0A0E0B0E02D
:1003C00004C0880F991FAA1FBB1F2A95D2F7019757
:1003D000A109B1098E219F21A023B1230097A10576
:1003E000B10521F081E090E0A0E0B0E09A01AB011E
:1003F000282B392B4A2B5B2BDA01C9018F779070A0
:10040000A070B07080349105A105B10539F427FFC3
:1004100009C0205C3F4F4F4F5F4F04C0215C3F4FEE
:100420004F4F5F4FE0E0F0E02030A0E03A07A0E05F
:100430004A07A0E45A0710F0E1E0F0E079018A01F0
:1004400027C06038710564F5FB01E158FF4FD80102
:10045000C7018F779070A070B07080349105A105AE
:10046000B10539F4E7FE0DC080E490E0A0E0B0E013
:1004700004C08FE390E0A0E0B0E0E80EF91E0A1F90
:100480001B1F17FF05C016950795F794E794319643
:1004900087E016950795F794E7948A95D1F705C0FC
:1004A000EE24FF248701EFEFF0E06E2F67956627BB
:1004B0006795902F9F77D794DD24D7948E2F8695BC
:1004C000492F462B582F5D29B701CA011F910F9163
:1004D000FF90EF90DF900895FC01DB014081518196
:1004E0002281622F6F7770E0221F2227221F9381C3
:1004F000892F880F822B282F30E0991F9927991F69
:1005000011969C93119721153105A9F541155105B7
:100510006105710511F482E037C082E89FEF139600
:100520009C938E9312979A01AB0167E0220F331FC1
:10053000441F551F6A95D1F783E08C930DC0220F9D
:10054000331F441F551F12968D919C91139701974D
:1005500013969C938E931297203080E0380780E0AA
:10056000480780E4580758F314962D933D934D9314
:100570005C93179708952F3F310579F44115510584
:100580006105710519F484E08C93089564FF03C03C
:1005900081E08C9312C01C9210C02F5730401396EC
:1005A0003C932E93129783E08C9387E0440F551F62
:1005B000661F771F8A95D1F7706414964D935D93EB
:1005C0006D937C9317970895DF93CF9300D000D05D
:1005D00000D0CDB7DEB78E831D8281E090E0A0E031
:1005E000B0E089839A83AB83BC831D8213C0898169
:1005F0009A81AB81BC81880F991FAA1FBB1F880FEE
:10060000991FAA1FBB1F89839A83AB83BC838D81EB
:100610008F5F8D838D81282F332727FD30958E8125
:10062000992787FD909501978217930704F7898191
:100630009A81AB81BC81BC01CD0126960FB6F8949E
:10064000DEBF0FBECDBFCF91DF910895DF93CF9373
:100650000F92CDB7DEB78983E3E2F0E08981808332
:10066000E6E5F0E084E88083E6E5F0E08081882339
:10067000DCF70F90CF91DF910895CF92DF92EF9248
:10068000FF920F931F93DF93CF9300D000D00F9270
:10069000CDB7DEB79B838A8381E08983EA81FB81C2
:1006A00084818370282F30E03D832C838C819D8151
:1006B0008130910529F1EC81FD81E230F10534F4BE
:1006C0002C813D812115310561F047C08C819D81D0
:1006D0008230910521F1EC81FD81E330F10571F16A
:1006E0003CC0A1E2B0E0E1E2F0E080818E7F8C933B
:1006F000A1E2B0E0E1E2F0E080818D7F8C932EC03A
:10070000A1E2B0E0E1E2F0E0808181608C93A1E2BF
:10071000B0E0E1E2F0E080818D7F8C931FC0A1E228
:10072000B0E0E1E2F0E080818E7F8C93A1E2B0E066
:10073000E1E2F0E0808182608C9310C0A1E2B0E041
:10074000E1E2F0E0808181608C93A1E2B0E0E1E23F
:10075000F0E0808182608C9301C0198289818130B0
:10076000C1F5CC24DD246894C5F8EA81FB812081A1
:1007700031814281538180E492E4AFE0B0E0BC017A
:10078000CD010E941612DA01C9010F2EF0EFEF2EF3
:10079000FFEFFF2EFFEF0F2FFFEF1F2FF02DE80EC3
:1007A000F91E0A1F1B1FEA81FB81848183700E944E
:1007B000E402DC01CB01880F991FAA1FBB1F9C011B
:1007C000AD01C801B7010E941612DA01C901F60194
:1007D000808389810F900F900F900F900F90CF9191
:1007E000DF911F910F91FF90EF90DF90CF900895D0
:1007F000DF93CF93CDB7DEB72C970FB6F894DEBF5B
:100800000FBECDBF8A836B834C8381E08983E6E58D
:10081000F0E084EA8083E6E5F0E080818823DCF77D
:10082000E1E2F0E08081282F30E03C872B878B8548
:100830009C858031910531F02B853C85283331052D
:1008400009F4198289818130E9F48A810E942603A2
:10085000E1E2F0E08081282F30E03A87298789851E
:100860009A858032910559F029853A8528333105DA
:1008700031F089859A858831910521F002C019826D
:1008800001C0198289818130E9F48B810E9426039D
:10089000E1E2F0E08081282F30E038872F838F81DC
:1008A00098858033910559F02F813885283331059B
:1008B00031F08F8198858832910521F002C019822C
:1008C00001C019828981813011F58C810E94260333
:1008D000E6E5F0E080818823DCF7E1E2F0E080816A
:1008E000282F30E03E832D838D819E8180339105BA
:1008F00059F02D813E812833310531F08D819E8163
:100900008832910521F002C0198201C019828981C3
:100910002C960FB6F894DEBF0FBECDBFCF91DF91FE
:100920000895DF93CF93CDB7DEB72F970FB6F89426
:10093000DEBF0FBECDBF8B836C835E834D832F8361
:1009400081E08A83E6E5F0E084EA8083E6E5F0E092
:1009500080818823DCF7E1E2F0E08081282F30E01D
:100960003F872E878E859F858031910531F02E85BA
:100970003F852833310509F41A828A818130E9F4F0
:100980008B810E942603E1E2F0E08081282F30E095
:100990003D872C878C859D858032910559F02C856B
:1009A0003D852833310531F08C859D858831910551
:1009B00021F002C01A8201C01A828A818130E9F4D2
:1009C0008C810E942603E1E2F0E08081282F30E054
:1009D0003B872A878A859B858033910559F02A8534
:1009E0003B852833310531F08A859B858832910516
:1009F00021F002C01A8201C01A828A818130E9F591
:100A00001982198230C08981282F30E08D819E8122
:100A1000FC01E20FF31F80810E942603E6E5F0E06F
:100A200080818823DCF7E1E2F0E08081282F30E04C
:100A300039872887888599858033910559F02885DD
:100A400039852833310531F08885998588329105BB
:100A500021F002C01A8201C01A828A81882369F0BB
:100A600089818F5F89838981282F30E08F81882F4A
:100A700090E001978217930734F6E6E5F0E084E909
:100A80008083E6E5F0E0808182958F70882F90E08A
:100A9000817090708823A9F78A812F960FB6F894F9
:100AA000DEBF0FBECDBFCF91DF910895DF93CF930F
:100AB000CDB7DEB72F970FB6F894DEBF0FBECDBF10
:100AC0008A836B835D834C8381E08983E6E5F0E074
:100AD00084EA8083E6E5F0E080818823DCF7E1E2C8
:100AE000F0E08081282F30E03F872E878E859F851C
:100AF0008031910531F02E853F852833310509F489
:100B0000198289818130E9F48A810E942603E1E219
:100B1000F0E08081282F30E03D872C878C859D85F3
:100B20008032910559F02C853D852833310531F00F
:100B30008C859D858831910521F002C0198201C004
:100B4000198289818130E9F48B810E942603E1E2D8
:100B5000F0E08081282F30E03B872A878A859B85BB
:100B60008033910559F02A853B852833310531F0D2
:100B70008A859B858832910521F002C0198201C0C7
:100B800019828981813019F5E6E5F0E084EA8083F5
:100B9000E6E5F0E080818823DCF7E1E2F0E08081A7
:100BA000282F30E0398728878885998580319105FD
:100BB00071F0288539852833310531F0888599858C
:100BC0008830910521F002C0198201C01982898103
:100BD0008130E9F48A8181600E942603E1E2F0E03D
:100BE0008081282F30E03F832E838E819F81803447
:100BF000910569F02E813F812834310529F08E81DD
:100C00009F818833910511F4198201C0198289816D
:100C10008130A9F4E6E5F0E084E88083E6E5F0E0E1
:100C200080818823DCF7E3E2F0E08081EC81FD81C4
:100C30008083E1E2F0E08081883509F019828981C2
:100C40002F960FB6F894DEBF0FBECDBFCF91DF91C8
:100C50000895DF93CF93CDB7DEB760970FB6F894C2
:100C6000DEBF0FBECDBF8A836B835D834C832E8333
:100C700081E08983E6E5F0E084EA8083E6E5F0E060
:100C800080818823DCF7E1E2F0E08081282F30E0EA
:100C9000388B2F878F8598898031910531F02F858A
:100CA00038892833310509F4198289818130E9F4C2
:100CB0008A810E942603E1E2F0E08081282F30E063
:100CC0003E872D878D859E858032910559F02D8533
:100CD0003E852833310531F08D859E85883191051B
:100CE00021F002C0198201C0198289818130E9F4A2
:100CF0008B810E942603E1E2F0E08081282F30E022
:100D00003C872B878B859C858033910559F02B85FB
:100D10003C852833310531F08B859C8588329105DF
:100D200021F002C0198201C019828981813019F530
:100D3000E6E5F0E084EA8083E6E5F0E08081882360
:100D4000DCF7E1E2F0E08081282F30E03A87298764
:100D500089859A858031910571F029853A852833F6
:100D6000310531F089859A858830910521F002C0DE
:100D7000198201C0198289818130E9F48A818160F8
:100D80000E942603E1E2F0E08081282F30E03887DE
:100D90002F838F8198858034910569F02F81388564
:100DA0002834310529F08F8198858833910511F415
:100DB000198201C019828981813009F040C03CC08C
:100DC0008E818130D9F4E6E5F0E084E88083E6E5C1
:100DD000F0E080818823DCF7E3E2F0E08081EC81C1
:100DE000FD8180838C819D8101969D838C83E1E2CE
:100DF000F0E080818835E9F019821BC0E6E5F0E07B
:100E000084EC8083E6E5F0E080818823DCF7E3E290
:100E1000F0E08081EC81FD8180838C819D81019651
:100E20009D838C83E1E2F0E08081803511F01982AE
:100E300006C08E8181508E838E8118160CF2E6E5F5
:100E4000F0E084E98083E6E5F0E0808182958F70B0
:100E5000882F90E0817090708823A9F7898160962F
:100E60000FB6F894DEBF0FBECDBFCF91DF910895CE
:100E7000DF93CF930F92CDB7DEB781E0898389E00E
:100E800060E00E9497098AE067E00E9497098BE082
:100E900067E00E9497098CE061E00E9497098FE06B
:100EA00060E00E94970989810F90CF91DF910895AA
:100EB000DF93CF9300D0CDB7DEB78A8381E08983FB
:100EC00089E060E04A810E947F078AE067E04A810A
:100ED0000E947F078BE067E04A810E947F078CE0D9
:100EE00061E04A810E947F078FE060E04A810E94B2
:100EF0007F0789810F900F90CF91DF910895DF9345
:100F0000CF9300D000D00F92CDB7DEB78B836C8328
:100F10004D8381E08A831982A8E3B0E0E8E3F0E042
:100F200080818F7E8C9319820BC08B810E945E1111
:100F30008A838C810E945E118A8389818F5F898375
:100F40008981282F30E08D81882F90E001978217CA
:100F500093075CF7A8E3B0E0E8E3F0E0808180610C
:100F60008C938A810F900F900F900F900F90CF91DC
:100F7000DF910895DF93CF9300D000D000D0CDB79C
:100F8000DEB78B837D836C834E8381E08A831982F5
:100F9000A8E3B0E0E8E3F0E080818F7E8C931982D3
:100FA00019C08B810E945E118A838981282F30E0CD
:100FB0008C819D81FC01E20FF31F8081882F90E0DE
:100FC000FC01E457FF4F80810E945E118A83898172
:100FD0008F5F89838981282F30E08E81882F90E070
:100FE000019782179307ECF6A8E3B0E0E8E3F0E09E
:100FF000808180618C938A8126960FB6F894DEBF3B
:101000000FBECDBFCF91DF910895DF93CF93CDB7C2
:10101000DEB728970FB6F894DEBF0FBECDBF988716
:101020008F8381E08E831D8281E08C831B821A82F4
:10103000198203C08D818F5F8D838D81282F30E0D1
:101040008F819885FC01E20FF31F8081882391F73F
:101050008D81883020F48D818150898302C087E0A2
:10106000898381E08C837EC0A8E3B0E0E8E3F0E010
:1010700080818F7E8C931B8265C08C810E945E1163
:101080008E838D81282F30E08A81882F90E0A901FE
:10109000481B590BCA019C01215030408F81988513
:1010A000FC01E20FF31F8081882F90E0AC014052D9
:1010B00050408C81882F90E09C0121503040CA0123
:1010C000880F991F880F991F880F991F820F931FF0
:1010D000FC01E756FF4F80818093E4038D81282F28
:1010E00030E08A81882F90E0A901481B590BCA0182
:1010F0009C01215030408F819885FC01E20FF31F45
:101100008081882F90E0AC01405250408C81882F24
:1011100090E09C0121503040CA01880F991F880F30
:10112000991F880F991F820F931FFC01E756FF4FED
:1011300080810E945E118E838A818F5F8A838B817A
:101140008F5F8B839B818981891708F096CF1A82E4
:10115000A8E3B0E0E8E3F0E0808180618C938C81CB
:101160008F5F8C838C81893008F47ECF8E812896A6
:101170000FB6F894DEBF0FBECDBFCF91DF910895BB
:101180000F931F93DF93CF93CDB7DEB727970FB69B
:10119000F894DEBF0FBECDBF6A837B838C839D83B3
:1011A0005F834E8319822FC08981282F332727FD23
:1011B00030958E819F818C01020F131F8A819B8144
:1011C000AC81BD812AE030E040E050E0BC01CD01BF
:1011D0000E943812DC01CB01F801808389818F5F86
:1011E00089838A819B81AC81BD812AE030E040E027
:1011F00050E0BC01CD010E943812DA01C9018A8396
:101200009B83AC83BD838A819B81AC81BD81009728
:10121000A105B10549F627960FB6F894DEBF0FBEBB
:10122000CDBFCF91DF911F910F9108950F931F9321
:10123000DF93CF93CDB7DEB762970FB6F894DEBFDA
:101240000FBECDBF6A877B878C879D874E870F87B0
:10125000188B298B3A8B1F821E8286E08D836A85CC
:101260007B858C859D8520E030E04AE754E40E9430
:101270004900DC01CB01BC01CD010E944301DC012E
:10128000CB0189839A83AB83BC838F859889A98995
:10129000BA8928ED33E0BC01CD01A9010E94C00844
:1012A00089819A81AB81BC812EED33E0BC01CD01F7
:1012B000A9010E94C0080E94F30986E08D8329C01D
:1012C0008D81282F332727FD309586E090E0821B03
:1012D000930BFC01E852FC4F808188878D81282F79
:1012E000332727FD309586E090E0821B930BFC01AD
:1012F000E252FC4F808189878D81833011F481E037
:101300008F838D81863011F481E08E838D818150B1
:101310008D838D811816A4F262960FB6F894DEBF05
:101320000FBECDBFCF91DF911F910F910895DF9335
:10133000CF9300D00F92CDB7DEB78A836B83A8E33B
:10134000B0E0E8E3F0E080818F7E8C938A810E9498
:101350005E1189838B810E945E118983A8E3B0E0CE
:10136000E8E3F0E0808180618C9389810F900F9099
:101370000F90CF91DF910895DF93CF93CDB7DEB774
:1013800090918C0088E0692F0E94970990918C00C1
:1013900087E0692F0E94970990918C0086E0692F61
:1013A0000E94970990918C0085E0692F0E9497090F
:1013B00090918C0084E0692F0E94970990918C0095
:1013C00083E0692F0E94970990918C0082E0692F39
:1013D0000E94970990918C0081E0692F0E949709E3
:1013E000CF91DF910895DF93CF93CDB7DEB7909182
:1013F0008C0088E0692F42E00E947F0790918C006A
:1014000087E0692F42E00E947F0790918C0086E080
:10141000692F42E00E947F0790918C0085E0692F40
:1014200042E00E947F0790918C0084E0692F42E0A7
:101430000E947F0790918C0083E0692F42E00E9418
:101440007F0790918C0082E0692F42E00E947F0725
:1014500090918C0081E0692F42E00E947F07CF913C
:10146000DF910895DF93CF9300D000D000D0CDB7A7
:10147000DEB76B837C838D839E831A82198217C0AB
:101480008B819C81AD81BE812AE030E040E050E05C
:10149000BC01CD010E943812DA01C9018B839C8303
:1014A000AD83BE8389819A8101969A8389838B81DA
:1014B0009C81AD81BE810097A105B10509F78981A5
:1014C00026960FB6F894DEBF0FBECDBFCF91DF9149
:1014D00008951F93DF93CF93CDB7DEB727970FB64D
:1014E000F894DEBF0FBECDBF6C837D838E839F8358
:1014F0001B828C819D81AE81BF810097A105B105C2
:1015000019F40E94BC0917C08C819D81AE81BF81F6
:10151000BB238CF481E08B838C819D81AE81BF8164
:10152000B095A095909581959F4FAF4FBF4F8C83FD
:101530009D83AE83BF838C819D81AE81BF810097E7
:10154000A105B10509F450C00E94BC098C819D81A0
:10155000AE81BF81BC01CD010E94320A8A8319820B
:101560008B81813039F48A818F5F90919700692F48
:101570000E94970919822EC08981182F1F5F8C81C4
:101580009D81AE81BF812AE030E040E050E0BC01A7
:10159000CD010E943812DC01CB01FC01E457FF4F62
:1015A0009081812F692F0E9497098C819D81AE8146
:1015B000BF812AE030E040E050E0BC01CD010E9454
:1015C0003812DA01C9018C839D83AE83BF83898180
:1015D0008F5F89838981282F30E08A81882F90E06E
:1015E00001978217930744F627960FB6F894DEBF4B
:1015F0000FBECDBFCF91DF911F9108951F93DF9351
:10160000CF93CDB7DEB72B970FB6F894DEBF0FBEE2
:10161000CDBF6F83788789879A874B876F8178855D
:1016200089859A8520E030E04AE754E40E94490029
:10163000DC01CB01BC01CD010E944301DC01CB01E7
:101640008B839C83AD83BE830E94BC098B819C816C
:10165000AD81BE81BC01CD010E94320A8A8319820C
:1016600019825BC08981882359F48B85882341F0D6
:1016700089818F5F90919800692F0E94970938C0E7
:1016800089818330E1F48981182F1F5F8B819C81D0
:10169000AD81BE812AE030E040E050E0BC01CD01E8
:1016A0000E943812DC01CB01FC01E457FF4F80811E
:1016B000982F9068812F692F0E94970919C08981FE
:1016C000182F1F5F8B819C81AD81BE812AE030E0A5
:1016D00040E050E0BC01CD010E943812DC01CB019A
:1016E000FC01E457FF4F9081812F692F0E949709D9
:1016F0008B819C81AD81BE812AE030E040E050E0EA
:10170000BC01CD010E943812DA01C9018B839C8390
:10171000AD83BE8389818F5F89838981282F30E0E3
:101720008A81882F90E00197821793070CF09ACF57
:101730002B960FB6F894DEBF0FBECDBFCF91DF91D1
:101740001F910895DF93CF93CDB7DEB72A970FB6D9
:10175000F894DEBF0FBECDBF8D836E834F83288785
:1017600081E089838E818C3318F48F818C3308F06B
:1017700019828D81882319F48885883130F48D8110
:10178000882321F088858D3008F019828981813085
:1017900009F05FC08E819AE0692F0E940A12282FFB
:1017A0002295207F8E819AE0692F0E940A12892F4C
:1017B000820F8A838F819AE0692F0E940A12282F54
:1017C0002295207F8F819AE0692F0E940A12892F2B
:1017D000820F8B8388859AE0692F0E940A12282F36
:1017E0002295207F88859AE0692F0E940A12892F0E
:1017F000820F8C838D81282F30E03A872987898555
:101800009A858130910551F029853A85223031053C
:1018100061F089859A85009779F011C08C818F7D60
:101820008C838C8180648C830AC08C8180628C83E1
:101830008C8180648C8303C08C818F7B8C839E0120
:101840002E5F3F4F80ED60E0A90123E00E949104EC
:10185000898389812A960FB6F894DEBF0FBECDBF6B
:10186000CF91DF910895DF93CF93CDB7DEB729975E
:101870000FB6F894DEBF0FBECDBF8E836F8348874F
:10188000298781E089831A821B821C821D828F81B5
:10189000803260F48F81882349F088858D3030F460
:1018A0008885882319F08985843608F01982898112
:1018B0008130E1F58E818A838F819AE0692F0E94C1
:1018C0000A12282F2295207F8F819AE0692F0E948B
:1018D0000A12892F820F8B8388859AE0692F0E94D4
:1018E0000A12282F2295207F88859AE0692F0E946E
:1018F0000A12892F820F8C8389859AE0692F0E94B2
:101900000A12282F2295207F89859AE0692F0E944C
:101910000A12892F820F8D839E012E5F3F4F80ED2B
:1019200063E0A90124E00E949104898389812996BA
:101930000FB6F894DEBF0FBECDBFCF91DF910895F3
:10194000DF93CF9300D000D0CDB7DEB79C838B83DD
:1019500081E08A832B813C8180ED60E0A90123E056
:101960000E9429068A83898182958F70882F90E052
:101970009C01220F331FC901880F991F880F991FDF
:10198000820F931F982FEB81FC8180818F70890FCC
:10199000EB81FC8180838B819C81DC0111968B81A2
:1019A0009C81FC013196808182958F70882F90E018
:1019B0009C01220F331FC901880F991F880F991F9F
:1019C000820F931F282F8B819C81FC01319680818F
:1019D0008F70820F8C938B819C81FC013296808169
:1019E000807E89838B819C81DC0112968B819C8116
:1019F000FC01329680818F718C938B819C81DC01FC
:101A000012968B819C81FC013296808182958F7029
:101A1000882F90E09C01220F331FC901880F991F66
:101A2000880F991F820F931F282F8B819C81FC01A7
:101A3000329680818F70820F8C938A810F900F90E5
:101A40000F900F90CF91DF910895DF93CF9300D047
:101A50000F92CDB7DEB79B838A8381E089832A8189
:101A60003B8180ED63E0A90124E00E94290689837F
:101A7000EA81FB8180818770EA81FB8180838A8192
:101A80009B81DC0111968A819B81FC0131968081CA
:101A900082958F70882F90E09C01220F331FC9011F
:101AA000880F991F880F991F820F931F282F8A81F3
:101AB0009B81FC0131968081820F8C938A819B816E
:101AC000DC0112968A819B81FC013296808182958D
:101AD0008F70882F90E09C01220F331FC901880F5F
:101AE000991F880F991F820F931F282F8A819B812E
:101AF000FC0132968081820F8C938A819B81DC016C
:101B000013968A819B81FC013396808182958F7028
:101B1000882F90E09C01220F331FC901880F991F65
:101B2000880F991F820F931F282F8A819B81FC01A8
:101B300033968081820F8C9389810F900F900F9044
:101B4000CF91DF910895DF93CF93CDB7DEB727977D
:101B50000FB6F894DEBF0FBECDBF9F838E8381E0AA
:101B60008A8319829E012D5F3F4F80ED60E0A901BD
:101B700023E00E9429068A838D8182958695869529
:101B80008370882F90E081709070882349F18D8157
:101B9000882F90E0807190709595879595958795A1
:101BA0009595879595958795805DEE81FF818083DA
:101BB0008E819F81FC0131968D818F70805D808345
:101BC0008D81829586958770882F90E081709070C6
:101BD000882319F081E089831CC082E0898319C0C1
:101BE0008D81882F90E0807390709595879595955D
:101BF00087959595879595958795805DEE81FF8171
:101C000080838E819F81FC0131968D818F70805DF4
:101C100080838E819F81FC0132968AE380838E814E
:101C20009F81FC0133968C8182958F70805D8083CB
:101C30008E819F81FC0134968C818F70805D8083C2
:101C40008E819F81FC0135968AE380838E819F81FE
:101C5000FC0136968B8182958F70805D80838E81AA
:101C60009F81FC0137968B818F70805D8083898195
:101C70008130C1F48E819F81FC01389680E280839F
:101C80008E819F81FC01399680E580838E819F81C2
:101C9000FC013A968DE480838E819F81FC013B9606
:101CA000108220C089818230C1F48E819F81FC0125
:101CB000389680E280838E819F81FC01399681E491
:101CC00080838E819F81FC013A968DE480838E8192
:101CD0009F81FC013B96108205C08E819F81FC0193
:101CE000389610828A8127960FB6F894DEBF0FBE11
:101CF000CDBFCF91DF910895DF93CF9300D000D077
:101D00000F92CDB7DEB79B838A837D836C83198264
:101D100015C08981282F30E08A819B81DC01A20FC8
:101D2000B31F8981282F30E08C819D81FC01E20F57
:101D3000F31F80818C9389818F5F89838981282F0C
:101D400030E08C819D81FC01E20FF31F80818823AC
:101D500001F70F900F900F900F900F90CF91DF91A0
:101D60000895DF93CF93CDB7DEB729970FB6F894D8
:101D7000DEBF0FBECDBF9F838E8381E089839E012E
:101D80002E5F3F4F80ED63E0A90124E00E94290609
:101D900089838B8182958F70805DEE81FF81808346
:101DA0008E819F81FC0131968B818F70805D808355
:101DB0008E819F81FC0132968FE280838E819F818C
:101DC000FC0133968C8182958F70805D80838E813B
:101DD0009F81FC0134968C818F70805D80838E8121
:101DE0009F81FC0135968FE280838E819F81FC016B
:101DF000369682E380838E819F81FC01379680E353
:101E000080838E819F81FC0138968D8182958F70B1
:101E1000805D80838E819F81FC0139968D818F70DA
:101E2000805D80838A81282F30E0398728878885E4
:101E300099858430910509F440C02885398525307D
:101E4000310584F4888599858230910521F12885B2
:101E500039852330310544F5888599858130910590
:101E600089F04EC02885398526303105C1F1888535
:101E700099858630910554F12885398527303105BB
:101E8000B9F13EC08E819F810A9620E630E0B9010B
:101E90000E947C0E35C08E819F810A9625E630E037
:101EA000B9010E947C0E2CC08E819F810A962AE681
:101EB00030E0B9010E947C0E23C08E819F810A967A
:101EC0002FE630E0B9010E947C0E1AC08E819F81FE
:101ED0000A9624E730E0B9010E947C0E11C08E8181
:101EE0009F810A962AE730E0B9010E947C0E08C063
:101EF0008E819F810A962FE730E0B9010E947C0E07
:101F0000898129960FB6F894DEBF0FBECDBFCF9161
:101F1000DF910895DF93CF9300D000D00F92CDB71B
:101F2000DEB79B838A8381E08983EA81FB8181819B
:101F3000282F30E03D832C838C819D818330910557
:101F400009F470C02C813D812430310584F48C81EA
:101F50009D8181309105D1F12C813D812230310567
:101F60000CF04AC08C819D810097D1F0C9C02C81B2
:101F70003D812530310509F481C08C819D818530FA
:101F800091050CF465C02C813D812630310509F4A2
:101F90008BC08C819D818730910509F49BC0B0C0B6
:101FA000ADE2B0E0EDE2F0E080818E7F8C93ADE2B7
:101FB000B0E0EDE2F0E080818D7F8C93AEE2B0E0A6
:101FC000EEE2F0E080818E7F8C939BC0ADE2B0E0CA
:101FD000EDE2F0E0808181608C93ADE2B0E0EDE273
:101FE000F0E080818D7F8C93AEE2B0E0EEE2F0E035
:101FF00080818E7F8C9385C0ADE2B0E0EDE2F0E0B1
:1020000080818E7F8C93ADE2B0E0EDE2F0E08081E4
:1020100082608C93AEE2B0E0EEE2F0E080818E7FF1
:102020008C936FC0ADE2B0E0EDE2F0E080818160C2
:102030008C93ADE2B0E0EDE2F0E0808182608C93C1
:10204000AEE2B0E0EEE2F0E080818E7F8C9359C08A
:10205000ADE2B0E0EDE2F0E080818E7F8C93ADE206
:10206000B0E0EDE2F0E080818D7F8C93AEE2B0E0F5
:10207000EEE2F0E0808181608C9343C0ADE2B0E09D
:10208000EDE2F0E0808181608C93ADE2B0E0EDE2C2
:10209000F0E080818D7F8C93AEE2B0E0EEE2F0E084
:1020A000808181608C932DC0ADE2B0E0EDE2F0E084
:1020B00080818E7F8C93ADE2B0E0EDE2F0E0808134
:1020C00082608C93AEE2B0E0EEE2F0E0808181606D
:1020D0008C9317C0ADE2B0E0EDE2F0E0808181606A
:1020E0008C93ADE2B0E0EDE2F0E0808182608C9311
:1020F000AEE2B0E0EEE2F0E0808181608C9301C05E
:10210000198289810F900F900F900F900F90CF91AF
:10211000DF910895DF93CF93CDB7DEB72B970FB63E
:10212000F894DEBF0FBECDBF9B838A8381E0898395
:102130008A819B81009711F41982AFC0ADE2B0E0B3
:10214000EDE2F0E080818F7B8C93EA81FB818081DE
:102150008170282F30E03B872A878A859B850097EE
:10216000D9F02A853B852130310529F5ADE2B0E073
:10217000EDE2F0E0808180618C93A7E3B0E0E7E3DB
:10218000F0E08081806B8C93A7E3B0E0E7E3F0E0C0
:1021900080818F7B8C9310C0ADE2B0E0EDE2F0E087
:1021A00080818F7E8C93A7E3B0E0E7E3F0E080814D
:1021B00080648C9301C01982EA81FB8180818695BD
:1021C000869586958170282F30E039872887888505
:1021D0009985009731F0288539852130310549F0FE
:1021E00010C0ADE2B0E0EDE2F0E08081877F8C933B
:1021F00009C0ADE2B0E0EDE2F0E0808188608C9350
:1022000001C01982EA81FB81808186958695817063
:10221000282F30E03F832E838E819F81009769F0C5
:102220002E813F812130310581F4ADE2B0E0EDE255
:10223000F0E0808184608C9309C0ADE2B0E0EDE213
:10224000F0E080818B7F8C9301C01982EA81FB8151
:10225000808186958170282F30E03D832C838C818E
:102260009D81009731F02C813D812130310549F06D
:102270000FC0ADE2B0E0EDE2F0E080818F7D8C93A5
:1022800007C0ADE2B0E0EDE2F0E0808180628C93C7
:102290008A819B810E948A0F8983ADE2B0E0EDE2E2
:1022A000F0E0808180648C9389812B960FB6F8943E
:1022B000DEBF0FBECDBFCF91DF910895DF93CF93E7
:1022C00000D0CDB7DEB78A8381E08983EFE2F0E00A
:1022D0008A818083EEE2F0E080818823DCF78981C7
:1022E0000F900F90CF91DF910895DF93CF9300D09F
:1022F0000F92CDB7DEB79B838A8381E089830AC0C2
:10230000EA81FB8180810E945E118A819B81019616
:102310009B838A83EA81FB818081882389F7898175
:102320000F900F900F90CF91DF910895DF93CF938F
:1023300000D00F92CDB7DEB79B838A8381E089837B
:10234000EEE2F0E080818823DCF7EFE2F0E08081CC
:10235000EA81FB81808389810F900F900F90CF914C
:10236000DF910895DF93CF9300D000D0CDB7DEB7D3
:102370009C838B831A8281E089838B819C810E945C
:10238000961189838A818F5F8A830DC08A81282F65
:1023900030E08B819C81820F931F0E94961189836C
:1023A0008A818F5F8A838A81282F30E08B819C818C
:1023B000FC01E20FF31F8081833241F789810F9086
:1023C0000F900F900F90CF91DF910895DF93CF93EF
:1023D000CDB7DEB729970FB6F894DEBF0FBECDBFDD
:1023E00081ED93E00E948A1083ED93E00E943D030B
:1023F00088E00E94580780E06CE044E225E00E94FB
:10240000A20BCE0101960E94A30DCE0101960E945F
:102410000508F7CF991B79E004C0991F961708F0BB
:10242000961B881F7A95C9F780950895A1E21A2E08
:10243000AA1BBB1BFD010DC0AA1FBB1FEE1FFF1F68
:10244000A217B307E407F50720F0A21BB30BE40BB8
:10245000F50B661F771F881F991F1A9469F76095FF
:102460007095809590959B01AC01BD01CF010895B9
:1024700097FB092E05260ED057FD04D0D7DF0AD0D2
:10248000001C38F450954095309521953F4F4F4FA3
:102490005F4F0895F6F790958095709561957F4F01
:1024A0008F4F9F4F08952F923F924F925F926F925E
:1024B0007F928F929F92AF92BF92CF92DF92EF92D4
:1024C000FF920F931F93CF93DF93CDB7DEB7CA1B55
:1024D000DB0B0FB6F894DEBF0FBECDBF09942A8880
:1024E000398848885F846E847D848C849B84AA8428
:1024F000B984C884DF80EE80FD800C811B81AA81B5
:10250000B981CE0FD11D0FB6F894DEBF0FBECDBF7F
:08251000ED010895F894FFCFDE
:102518002053756E00204D6F6E00205475650020A5
:10252800576564002054687572002046726900205F
:102538005361740000000000000000007E306D79D7
:10254800335B5F707F7B77014E0000000000000066
:10255800008080808080008000A0A0A00000000093
:10256800000050F85050F850002078A07028F02053
:1025780000C8C810204098980020502040A89068B3
:102588000080800000000000002040808080402003
:1025980000804020202040800000A870F870A8002B
:1025A80000002020F82020000000000000006060EB
:1025B800C0000000F8000000000000000000C0C0DB
:1025C800000808102040808000205088888850200B
:1025D800003050901010103800708888102040F893
:1025E80000708808300888700010305090F810107B
:1025F80000F880F00808887000384080F0888870FB
:1026080000F8881020202020007088887088887042
:1026180000708888780810E00000C0C00000C0C0C2
:102628000000606000006060C01020408040201002
:10263800000000F000F000000080402010204080E2
:102648000070881020200020007088B8A8A890404A
:102658000020508888F8888800F08888F08888F0FA
:10266800003840808080403800E09088888890E07A
:1026780000F88080F08080F800F88080F08080800A
:1026880000708880B888887000888888F88888886A
:1026980000E04040404040E000F808080808887022
:1026A800008890A0C0A0908800808080808080F8FA
:1026B8000082C6AA929292920088C8C8A898988860
:1026C800007088888888887000F08888F08080800A
:1026D8000070888888A8906800F08888F0908888BA
:1026E80000788080700808F000F820202020202042
:1026F8000088888888888870008888888850502052
:1027080000828282925454280088885020508888F9
:10271800008888505020202000F80810204080F8B9
:1027280000E08080808080E00080804020100808E1
:1027380000E02020202020E0002050880000000039
:1027480000000000000000F80080402000000000A9
:10275800000000F008789868008080F08888C8B089
:102768000000007080808070000808788888986869
:102778000000007088F88070003040F04040404011
:102788000000007888887808F08080E09090909029
:10279800004000C0404040E0002000602020202091
:1027A800C0808090A0C0A09000C04040404040E061
:1027B800000000E854545454000000D068484848C9
:1027C8000000007088888870000000F04848704059
:1027D800E000007890907010380000D0684040E029
:1027E80000000070806010E00040E0404040402061
:1027F8000000009090909078000000888850502049
:102808000000008888A850500000009090609090C8
:102818000000009090907010E00000F8102040F840
:102828000020404080404020008080808080808060
:1028380000804040204040800000000040A8100078
:1028480000609090A09090A00088205088F8888818
:1028580000887088888888700088008888888870D0
:10286800005000F0087898680050007088888870D8
:102878000050009090909078006090906000000068
:08288800000100A08601000020
:00000001FF
